:0200000420409A
:100000009711C05F938101F69702000093828201ED
:100010007390523093021000638402007350107C7E
:100020009702000093824211739052301301000036
:1000300063140100138101CE732540F18142130343
:100040000040137101FF6385A2001A918502D5BF9C
:10005000970000009380E00763830000829073257F
:1000600040F181450146F9289300000063830000B8
:100070008290970200009382C20073905230032353
:100080000000F5BF000000008280A14673B3063077
:100090009302400063C555001376350011CA230052
:1000A00005000505FD15E347B0FE7310033082809F
:1000B000232005001105F115E34EB0FC7310033049
:1000C0008280232003001103E34D73FE82800684A7
:1000D0009702C0DF938202F3638C02049702C0DFB1
:1000E000938242F2F32740F1A14673B006300A83AF
:1000F0009703C0DF938303318A9363037300D1377F
:10010000639857021703C05F1303C3EF9703C05FE1
:100110009383C367630373006D371703C0E713034B
:1001200063EE9703C0E79383E3ED63037300513FEE
:10013000A2808280F322203473231034F3233034DE
:10014000D5BF828006849711C05F9381A1E193029D
:1001500000006311550E97420000938222BF1703DF
:10016000C05F130323EA9703C05F93832362638C0A
:100170006200635A730003A5020091022320A300CA
:100180001103E34A73FE970200009382A2621703F1
:10019000C0E7130323E79703C0E79383A3E6638CC9
:1001A0006200635A730003A5020091022320A3009A
:1001B0001103E34A73FE0F100000970200009382C0
:1001C000625F1703C05F1303E3E39703C05F93838A
:1001D00063E3638C6200635A730003A5020091021B
:1001E0002320A3001103E34A73FE0F10000017033E
:1001F000C05F1303A3599383018E635773002320B9
:1002000003001103E34D73FE1702C05F130202588F
:1002100011C20296174500001305458AEF301006FB
:10022000EF30F00C174500001305E5AFEF30100577
:10023000EF30102F3937FD5673B0463073B0463467
:10024000F3271030372704007D8F09C773B036308D
:1002500073B02630370704007D8F19C373B00618BA
:10026000416713078702F98F89CBF32700300967AD
:10027000D98F7390073073503000F3271030370751
:100280002000F98F99C7F327003093E70720739078
:1002900007300545970500009385454F1706000078
:1002A0001306064F3120EF30A07EA280828082802C
:1002B000411106C2F32240F113030000638562007E
:0E02C00073005010F5BF2D2B9240410182803B
:0402D000D4024020F4
:1002D400F1653705008093850520130505746F309B
:0202E400F02404
:1002E8002020202020202020202020202020202006
:1002F8002020496C6C696E6F6973205465636800CF
:100308002020202020202020202020494949494918
:100318002020202049494949492020204949494964
:10032800494949494949000020202020202020200F
:100338002020202020492020202020202020492063
:100348002020202020202020494900002020202093
:1003580020202020202020494949494920202020C8
:1003680049494949492020202020202049490000A6
:100378002020202020202020202020202020205243
:10038800756E6E696E67206F6E2052495343562111
:1003980000000000435055206E756C6C2E00000064
:1003A80043505520696E7465727275707420636F5E
:1003B8006E74726F6C6C6572206973206E756C6CEC
:1003C8002E00000054494D455220696E74657272C2
:1003D80075707420636F6E74726F6C6C65722069CF
:1003E8007320206E756C6C2E0000000054494D453A
:1003F8005220696E746572727570742068616E64DB
:100408006C657220726567697374726174696F6E66
:10041800206661696C65640043505520696E746597
:10042800727275707420656E61626C6520666169B0
:100438006C6564004750494F5B25645D20776F7297
:100448006B73210A000000004750494F204E4F208F
:10045800574F524B000000004C454420456E6162E6
:100468006C6564000000000000000000000000004F
:100478000000000000000000000000000000000074
:100488000000000000000000000000000000000064
:100498000000000000000000000000000000000054
:1004A8000000000000000000000000000000000044
:1004B8000000000000000000000000000000000034
:1004C80000000000232D302B20000000686C4C0039
:1004D8006566674546470000303132333435363774
:1004E8003839414243444546000000003031323338
:1004F8003435363738396162636465660000000058
:10050800C8150000DE1500009E1500009E150000AD
:100518009E1500009E150000DE1500009E150000C7
:100528009E1500009E1500009E150000341700005F
:100538001C160000061700009E1500009E150000FE
:10054800641700009E1500001C1600009E15000090
:100558009E1500000E1700009A1D4020761E4020B0
:10056800F41D40200000000000000000F41F40209F
:1005780010204020081E4020F01D40209A1E4020D8
:10058800F01E4020000000000000000000000000F5
:100598000000000000000000000000000000000053
:1005A80000000000701F40206E1D40200000000069
:1005B8000000000000000000000000007E21402034
:1005C80090214020B2214020D8224020E421402020
:1005D800EE21402058234020F2214020F6214020DF
:1005E8002622402056224020862240206E2E40207F
:1005F8009C224020AE224020B4224020BC22402031
:10060800FA22402062234020D82C4020000000001D
:10061800000000000000000000000000082D40203D
:10062800000000004A2E40204E2E4020000000000E
:1006380000000000000000000000000000000000B2
:100648000000000000000000000000007A214020A7
:100658000000000000000000000000000000000092
:1006680000000000FE3040200000000000000000F4
:100678000000000000000000000000000000000072
:10068800D22E402000000000D43140200E324020FD
:1006980000000000000000009C3040201630402080
:1006A800AA2E4020842E40200000000000000000F8
:1006B800000000000000000048324020A83240201E
:1006C80032304020B4304020423440206034402052
:1006D800703440206A3440209234402078344020DE
:1006E8008C34402080344020BE344020CE3440201A
:1006F800C8344020F0344020D6344020EA3440202A
:10070800DE34402020334020083340203C33402052
:1007180050334020643340208033402098334020B9
:10072800B0334020CC334020E43340200234402012
:100738001E34402098344020F83440200E354020A4
:10074800FE374020D63640203C3640200C3740202B
:1007580030374020343740209A354020B435402087
:10076800C8354020E635402002364020203640205B
:10077800563640207A36402096364020BA364020F9
:1007880090074020000000006C6962676C6F73730B
:1007980000000000000000000000008001030400C9
:0807A800803940209A394020FD
:10080000011106CE22CC26CA4AC837040080EF1058
:100810000052EF10C0501304847808C009ED37056A
:1008200040201305C539952E0945F2406244D24453
:10083000424905618280B7040080EF10E04D938447
:10084000C47888C001E9370540201305853AB126F0
:100850000D45E1BFEF10604F0122084037090080CD
:1008600013098979EF10804A2320A90001E937058F
:1008700040201305C53C1526114545BFEF10E04C3F
:100880000840EF100049B70700801440AA8523AA4A
:10089000A77803250900371640201306E692EF10CB
:1008A000204B2A84635A0500370540201305453F35
:1008B000ED243305804095BF884081450144EF1009
:1008C0008049FD57630AF50237094020F944228523
:1008D000EF10404609C5A2851305C943ED2805045C
:1008E000E31794FE5545EF10E0442AC609ED37059D
:1008F000402013050545A1BF3705402013050542DB
:10090000692C19451DB76800EF1040453705402098
:100910001305054659246800EF10A044616493074D
:10092000046AFD17FDFF6800EF100044CDBFB70754
:10093000008003A5877937070080832547791C410C
:10094000411106C69C578297B240B7070080054701
:1009500023A8E778410182804111294506C622C4B7
:10096000552829454528370540201305852E35246F
:1009700029454D2037054020130585303704402098
:10098000292C13050433112C1305043339241305C2
:100990000433212413050433092413050433F52AF1
:1009A00013050433DD2A13050433C52A1305043364
:1009B000ED2213050433D5223705402013054535B4
:1009C000E92A294581282244B240370540201305F1
:1009D00085374101D9A25D7122D406D62A842EDA48
:1009E00032DC36DEBAC0BEC2C2C4C6C61705C05F9E
:1009F000032545D711C51C4D81E72AC6D12B3245A9
:100A00000C455418228636CEEF00F02BB2502254FB
:100A100061618280AA851705C05F0325A5D411CD29
:100A20001C4D81EF011106CE2EC62AC45523224546
:100A3000B245F2401045056119A01045F5BF0111FE
:100A400022CC06CE2A8401C91C4D91E732C62EC4A1
:100A500041233246A24597070000938767A3631599
:100A6000F60250401C46FD171CC663DF0702184EF5
:100A700063C7E70093F7F50F29476397E7022285DD
:100A80006244F240056105A297070000938747A2E0
:100A90006314F6001044F9B7970700009387479D49
:100AA000E312F6FC50447DBF1C4213F5F50F13878B
:100AB000170018C22380B700F240624405618280AB
:100AC000011126CA4AC806CE22CC4EC652C4AA84F8
:100AD0002E8901C51C4D91E3E5299C4C804499E386
:100AE0002685FD21970700009387879A631CF402EF
:100AF000C0408357C400A18BB1C71C48A1C7FD5992
:100B0000294A1C4483450900FD17B1E91CC463DE72
:100B100007062286A94526857920FD576308F50238
:100B2000294535A097070000938787986314F40040
:100B30008044C1B79707000093878793E31BF4FABB
:100B4000C04445BFA2852685392A55D97D55F24036
:100B50006244D2444249B249224A056182801CC49F
:100B6000050963D70700184C63CBE700638945018B
:100B70001C401387170018C02380B70059B722867E
:100B800026851520E31F35F7D1B71C4013871700C2
:100B900018C029472380E70061B7AA851705C05F01
:100BA000032545BC31BF011122CC26CA4AC806CE56
:100BB0004EC6AA842E89328401C51C4D91E30929B1
:100BC000970700009387C78C6319F406C0401C4C3C
:100BD0001CC48357C400A18BC9C31C48BDCF1C488B
:100BE00008409379F90F1379F90F1D8D5C4863461E
:100BF000F500A2852685C1242DE51C440505FD17B9
:100C00001CC41C401387170018C0238037015C48A0
:100C10006389A7008357C400858B81CBA9476316DE
:100C2000F900A2852685412C0DEDF2406244D244A4
:100C3000B2494A854249056182809707000093873F
:100C400027876314F400804459B7970700009387FF
:100C50002782E31EF4F6C0449DBFA285268521208D
:100C60003DDD7D59D9B7411122C426C24AC006C60E
:100C70009704C05F83A404AF2A892E8489C49C4C46
:100C800099E32685B126970700009387678063174D
:100C9000F402C0408317C4001397070193F687003E
:100CA0004183ADEA9376070195EA25472320E900C1
:100CB00093E707042316F4007D5571A897F7FFFF0B
:100CC0009387077F6314F4008044E9B797F7FFFF29
:100CD0009387077AE310F4FCC0446DBF118B0DC7F6
:100CE0004C5889C9930744046384F5004A85CD2B89
:100CF000232A04028357C4002322040093F7B7FD7C
:100D00002316F4001C481CC08357C40093E78700D7
:100D10002316F4001C4881EF8357C40013070020FA
:100D200093F707286385E700A2854A8585298317FD
:100D3000C4001397070193F6170041839DC25448DE
:100D400023240400B306D04014CC1448014581E6A6
:100D50001377070831FFB24022449244024941010F
:100D6000828093762700014691E2504810C4F1BF7B
:100D700083D7C500011122CC26CA06CE4AC84EC66A
:100D800013F78700AA842E8475E3D8416347E000F7
:100D9000B8416344E000014575A858546DDF85668D
:100DA00003A90400F58F23A00400A5CF684883574A
:100DB000C400918B99C75C401D8D5C5899C33C4021
:100DC0001D8D5C540C502A86814626858297FD57DE
:100DD0000357C400631DF5009440F54763E3D7084B
:100DE000B70740208507B3D7D700858BBDCB1C48FC
:100DF000232204001CC085677D8F19C7FD5763142B
:100E0000F5009C4091E368C84C5823A02401C1D54B
:100E1000930744046384F5002685D921232A04021C
:100E20009DBF0C508546014626850297FD57E3106D
:100E3000F5F89C40ADDF75476385E700594763953A
:100E4000E70023A0240181BF8357C40093E7070470
:100E50002316F400F2406244D2444249B24905618B
:100E60008280136707042316E400EDB783A9050108
:100E7000E38309F203A905008D8B23A03501330913
:100E80003941014791E3D84918C4E35620F11C5475
:100E90000C50CA864E8626858297634AA0008357E7
:100EA000C4007D5593E707042316F40065B7AA999B
:100EB0003309A940D9BF9C49B9CF011122CC06CE34
:100EC0002A8411C51C4D81E72EC61922B24597F719
:100ED000FFFF9387E75B639BF5004C408397C5005A
:100EE00095C722856244F240056159B597F7FFFF27
:100EF0009387075C6394F5000C44CDB797F7FFFF29
:100F000093870757E39CF5FC4C44C9BFF240624409
:100F100001450561828001458280411122C406C6D7
:100F20002A842316B5002317C50023200500232299
:100F30000500232405002322050623280500232A73
:100F40000500232C0500214681451305C505ED2428
:100F5000971700009387A7835CD0971700009387AB
:100F600007861CD4971700009387478A5CD497178D
:100F700000009387078DB24000D01CD82244410165
:100F8000828097050000938545F3B1A2411126C2E6
:100F9000130680069384F5FFB384C4024AC02E89E9
:100FA00022C406C693854407E92E2A8419C9232042
:100FB000050023222501310508C4138684068145D6
:100FC000A52CB240228522449244024941018280EC
:100FD0001C4DBDE3411122C406C69707000093874C
:100FE00087FA1CD523240504232605042328050499
:100FF00097F7FFFF83A7077B2A846314F5008547D3
:101000001CCD22851D2848C02285052808C42285BC
:101010002D2048C448400146914501370844054603
:10102000A545E53D48440946C945C53D8547B2400B
:101030001CCC2244410182808280411126C297F457
:10104000FFFF83A424769C4C4AC006C622C42A898A
:1010500099E32685B53F938484048044DC40FD17E2
:1010600063D607009C40B1CF8440C5BF0317C400BE
:1010700031E7C177850723220406232004002322B9
:101080000400232404005CC423280400232A040051
:10109000232C0400214681451305C405712A232A07
:1010A0000402232C04022324040423260404B24053
:1010B000228522449244024941018280130484061D
:1010C00079BF91454A85D93588C02A8451FDB147F9
:1010D0002320F900E9BF797122D44AD04ECE52CCF8
:1010E0005AC85EC606D626D256CA2A892E8A130444
:1010F00085048149054BFD5B0444832A4400FD1AA5
:1011000063D00A0200406DF8B25022549254025942
:10111000624AD24A424BB24B4E85F24945618280C7
:1011200083D7C400637BFB008397E4006387770168
:10113000A6854A85029AB3E9A90093848406C1B7BB
:101140005971CAD02E898395E500A2D4A6D286D63D
:101150003284B68463DC05008317C90023A0040031
:1011600093F7070895E3930700400DA03000EF00C8
:10117000A073E34305FE3247BD67F98F7977BA97CD
:1011800093B717009CC0C5B793070004B6501CC0A6
:1011900026549654065901456561828083D7C5005F
:1011A000011122CC06CE26CA4AC8898B2E8489CF4B
:1011B000930774041CC01CC885475CC8F240624495
:1011C000D244424905618280740030002A898D3FF3
:1011D000A245AA844A85752201ED8317C40013F73E
:1011E000072069FFF19B93E727002316F400C9B796
:1011F00097070000938727D92324F9028357C40057
:1012000008C008C893E707082316F400A2475CC883
:10121000B24789CF8315E4004A85C12501C98357A8
:10122000C400F19B93E717002316F4000355C40094
:10123000C98C2316940059B73D432A876373C302B0
:101240009377F700BDEFADE5937606FF3D8ABA963A
:101250000CC34CC30CC74CC74107E36BD7FE11E26C
:101260008280B306C3408A06970200009696678084
:10127000A6002307B700A306B7002306B700A305FF
:10128000B7002305B700A304B7002304B700A303E6
:10129000B7002303B700A302B7002302B700A301DE
:1012A000B7002301B700A300B7002300B700828076
:1012B00093F5F50F93968500D58D93960501D58D01
:1012C00061B7939627009702000096968682E78082
:1012D00086FA9680C1171D8F3E96E374C3F8A5B7B2
:1012E000C5C183A7C5FF011122CC06CE1384C5FF5B
:1012F00063D307003E942AC6852517F7BF5F1307FF
:10130000274A1C43324581EB2322040000C3624478
:10131000F240056199A5637DF4001040B306C40056
:101320006396D7009443DC43B29614C05CC0F9BF07
:101330003E87DC4399C3E37DF4FE14433306D700B4
:10134000631F86001040B29614C33306D700E390A3
:10135000C7FC9043DC43B29614C35CC34DBF6375B6
:10136000C400B1471CC165B71040B306C400639602
:10137000D7009443DC43B29614C05CC040C341BF65
:101380008280011126CA93843500F1984AC806CE9E
:1013900022CC4EC6A104B1472A8963F4F404B144B7
:1013A00063E3B4044A854D2B97F6BF5F9386463FAF
:1013B00098423A8421E417F4BF5F1304A43E1C4012
:1013C00089E781454A85512E08C0A6854A85712640
:1013D000FD5963183507B1472320F9004A85B52B1D
:1013E00031A0E3DF04FAB1472320F9000145F240C0
:1013F0006244D2444249B249056182801C40858FD3
:1014000063CE07022D466376F6001CC03E9404C0EE
:1014100029A05C40631287029CC24A853D2B1305BC
:10142000B4009307440061993307F540E301F5FCEC
:101430003A94898F1CC065BF5CC3C5B72287404002
:1014400095BF130435007198E30385FCB305A440F0
:101450004A852126E31D35FBBDBF1C46FD171CC672
:1014600063DA0700184E63C5E700A9476394F500E7
:101470006FF06FF31C422E851387170018C223806C
:10148000B7008280011122CC26CA4AC84EC652C477
:1014900006CE2A89AE893284B304D6007D5A6314FD
:1014A0009400014509A8834504004E864A85753796
:1014B0000504E31645FFF2406244D2444249B24972
:1014C000224A05618280357122CD26CB4AC94EC79A
:1014D00006CF52C556C35AC1DEDEE2DCE6DAAA897F
:1014E000AE843289368401C51C4D91E3D53497F71B
:1014F000FFFF9387E7F9639BF40C83A4490083D72C
:10150000C400A18BF5C79C48E5C793070002A3045C
:10151000F1029307000302D22305F10222C6930BC6
:10152000500297FAFFFF938AAAFA054C294B4A8486
:101530008347040099C36390770FB30C2441630D74
:101540002401E6864A86A6854E852D3FFD57630415
:10155000F51E9257E6973ED283470400638D071C21
:10156000FD571309140002C802CE3ECA02CCA309DB
:10157000010482D48345090015465685C926C24711
:101580001304190059E913F7070109C713070002EB
:10159000A309E10413F7870009C71307B002A309E1
:1015A000E104834609001307A0026380E608F247BE
:1015B0004A84814625460347040093051400130717
:1015C00007FD6379E60AB5CA3ECE85A897F7FFFF07
:1015D000938707EE6395F40083A489000DB797F70E
:1015E000FFFF9387E7E8E39CF4F083A4C90001BF01
:1015F000A6854E85EFF02FE709D97D55FA406A445C
:10160000DA444A49BA492A4A9A4A0A4BF65B665C66
:10161000D65C0D618280050421BF33055541331529
:10162000AC00C98F3EC82289B1B732479306470044
:10163000184336C6634907023ACE034704009307AE
:10164000E002631FF704034714009307A002631B23
:10165000F702B2470904138747009C433AC663C1A7
:1016600007023ECA35A83307E04093E727003ACE89
:101670003EC8E1B7B38767032E848546BA9725BF76
:10168000FD57C5B7050402CA814681472546034771
:10169000040093051400130707FD6374E606F1F2D6
:1016A000834504000D4617F5FFFF1305E5E2412CC5
:1016B00011CD97F7FFFF938727E21D8D9307000455
:1016C000B397A700424505045D8D2AC883450400F1
:1016D000194617F5FFFF130565E0130914002304ED
:1016E000B102B12C2DC19307000095E74247B247E4
:1016F0001377071009CF91073EC69257D2973ED273
:101700003DB5B38767032E848546BA9749B79D07D1
:10171000E19BA107D5B77800970600009386C6D64F
:1017200026860C084E8597000000E7000000FD5754
:101730002A8AE314F5FC83D7C40093F70704E39ED9
:1017400007EA125565BD7800970600009386C6D358
:1017500026860C084E85092ED9BF411122C42A8441
:101760002E8597F7BF5F23A1070406C6EF20002A46
:10177000FD576318F50097F7BF5F83A7E70291C392
:101780001CC0B240224441018280411122C42E84F7
:101790008395E50006C68923634905007C48AA971E
:1017A0007CC8B2402244410182808357C4007D77C7
:1017B0007D17F98F2316F400EDB783D7C50001110B
:1017C00022CC26CA4AC84EC606CE93F70710AA8472
:1017D0002E843289B68991C78395E50089460146F2
:1017E0002D228357C4007D777D17F98F8315E40080
:1017F0002316F4006244F240CE864A86B24942493A
:101800002685D24405613DA8411122C42E848395CA
:10181000E50006C6DD28FD570357C400631BF5002D
:10182000FD77FD17F98F2316F400B24022444101E1
:1018300082808567D98F2316F40068C8FDB7839529
:10184000E5001DA8411122C42A842E85B285368662
:1018500097F7BF5F23AA07F406C6EF20801EFD5747
:101860006318F50097F7BF5F83A707F491C31CC007
:10187000B240224441018280411122C42A842E8533
:1018800097F7BF5F23A207F206C6EF20A012FD570D
:101890006318F50097F7BF5F83A707F191C31CC0DA
:1018A000B240224441018280411122C42A842E8503
:1018B000B28597F7BF5F23A907EE06C6EF20C010D9
:1018C000FD576318F50097F7BF5F83A7E7ED91C356
:1018D0001CC0B240224441018280411122C42A84AA
:1018E0002E8597F7BF5F23A107EC06C6EF20000FF8
:1018F000FD576318F50097F7BF5F83A7E7EA91C329
:101900001CC0B240224441018280411122C42A8479
:101910002E85B285368697F7BF5F23A707E806C6F0
:10192000EF20400CFD576318F50097F7BF5F83A7C2
:10193000A7E791C31CC0B24022444101828093F5C5
:10194000F50F2A966314C500014582808347050080
:10195000E38DB7FE0505FDB782808280797152CC98
:101960009C493A8A984522D426D24ECE56CA06D6EB
:101970004AD05AC85EC6AA892E84B284B68A63D376
:10198000E700BA879CC00347340419C385079CC08D
:101990001C4093F7070281C79C4089079CC003291C
:1019A000040013796900631A0900130B9401FD5BAD
:1019B0005C449840998F634CF90483473404B336F0
:1019C000F0001C4093F70702A5EB13063404D685FC
:1019D0004E85029AFD576303F5041C40114698405A
:1019E000998B544481446397C700B384E64063D322
:1019F000040081441C4418486354F700998FBE9436
:101A0000014969047D5B63982405014509A8854661
:101A10005A86D6854E85029A631E75017D55B25051
:101A2000225492540259F249624AD24A424BB24B72
:101A3000456182800509ADBF3307D400130600035A
:101A4000A301C7040347540493871600A29789068D
:101A5000A381E7049DBF85462286D6854E85029ADE
:101A6000E30E65FB050945B7797122D426D24AD029
:101A70004ECE06D652CC56CA5AC803C88501930723
:101A80008007AA842E843289B68963EE0701930702
:101A900020069386350463ED07016305081C930750
:101AA0008005630AF812930A24042301040515A88B
:101AB0009307D8F993F7F70F5546E366F6FE17F646
:101AC000FFFF1306A6A48A07B2979C43B2978287AA
:101AD0001C43938A2504938647009C4314C32381A7
:101AE000F50485475DA29C41084313F6070893055A
:101AF00045000DC21C410CC363D807001307D00278
:101B0000B307F040A301E40417F6FFFF1306869D18
:101B10002948A1A013F607041C410CC371DEC207BB
:101B2000C187D9BF90411C431375060893854700B0
:101B300001C50CC39C4339A0137606040CC37DDA9F
:101B400083D707001307F00617F6FFFF13068699E1
:101B50006304E80E2948A3010404584018C46345EF
:101B600007000C40ED990CC099E3B68A19CFB68AEC
:101B700033F70703FD1A3297034707002380EA0073
:101B80003E87B3D70703E37507FFA147631EF8003D
:101B90001C40858B91CB58401C4863C7E7009307D6
:101BA0000003A38FFAFEFD1AB386564114C84E8770
:101BB000CA867000A285268555337D5A631B450D64
:101BC0007D55B250225492540259F249624AD24A87
:101BD000424B45618280A382050517F6FFFF13067D
:101BE00066900C40084313F805081C411105630D6D
:101BF000080208C313F7150001C793E505020CC0DE
:101C00004148B1FB18401377F7FD18C0A9B79C41B4
:101C100093E707029CC193078007A302F40417F619
:101C2000FFFF1306668D75BF13F8050408C3E303B1
:101C300008FCC207C1837DBF214831BF90411C43CE
:101C4000CC4913780608138547006306080008C3CB
:101C50009C438CC301A808C3137606049C4375DA21
:101C60002390B70023280400B68A91B71C43D041C3
:101C700081459386470014C383AA07005685C13166
:101C800001C53305554148C05C401CC8A30104048C
:101C900039BF14485686CA8526858299E30245F3E2
:101CA0001C40898B8DE7B2474844E35CF5F03E85E4
:101CB00009BF85465686CA8526858299E30265F165
:101CC000050A5C443247998FE345FAFEE9BF014AB1
:101CD000930A94017D5BF5B7411122C42A842E85B5
:101CE000B285368697F7BF5F23A007AC06C6EF1014
:101CF000B050FD576318F50097F7BF5F83A7C7AAD9
:101D000091C31CC0B2402244410182801C419C4BC3
:101D100082871C41DC4B82871C41DC57828711E59E
:101D2000B707008003A5477682800145828073252E
:101D300040F18280854763E8A700938781800A0588
:101D40003E9508418280014582801C419C438287E8
:101D50001C41DC4F82871C41DC5382871C41DC43E1
:101D600082871C419C4782871C419C4B8287B70716
:101D700000809387C776370700026383A700014777
:101D80008E05BA95116793074700AE977D5588C3B6
:101D9000BA9590C194C3014582800111B7070080B4
:101DA00022CC4AC806CE26CA4EC69387C7762A8456
:101DB00001496313F5000949444099E4B7090080DB
:101DC000639B240185475CC0F2406244D24442498F
:101DD000B249056182808D4591C09D4583A7090761
:101DE000A2860146DC4F1385090785048297C9BF87
:101DF0007D5582806F00306C411106C6732540F11D
:101E0000393FB240410109BF01112EC632C436C26A
:101E100006CE22CC26CAAA84EF00F0692A84E93FC4
:101E2000B70700809387C77692462246B24501489D
:101E30006393F4000948854763E98700370700800A
:101E400081471307070763980701F2406244D244B1
:101E50007D55056182808D4891C39D486314E500DE
:101E6000638415018507C5B71C416244F240D24422
:101E7000DC4F05618287011106CE2EC6B53F11C920
:101E8000B24505476367B7001C41F240DC4305617A
:101E90008287F2407D5505618280011106CE22CCF9
:101EA0002EC69DC12A84893FB70700809387C776D5
:101EB000B24589466303F4008146370700808147B5
:101EC000130707076397D700F24062447D55056109
:101ED00082800D4691C31D466314E5006384C500EE
:101EE0008507CDB71C416244F240DC53056182870F
:101EF000011106CE22CC2EC69DC12A84F53DB7071E
:101F000000809387C776B24589466303F400814613
:101F1000370700808147130707076397D700F24010
:101F200062447D55056182800D4691C31D46631450
:101F3000E5006384C5008507CDB71C416244F240CB
:101F40009C5705618287370700801307C776B7075C
:101F500000026303A7008147B1661387C6FFE1163D
:101F60003E97B697144388430C43E39DD5FE828089
:101F70004111B707008022C406C69387C776328412
:101F800001476314F500370700028D476389F504A4
:101F900063CEB70085476385F50289476389F502FB
:101FA000FD57B24022443E85410182809147E3992A
:101FB000F5FE81477DD41C408A07BA979C43D5B76C
:101FC000FD5765D0493708C04CC08147D9BFFD5780
:101FD00069D81C408A07BA9723A00700FDB7FD57B0
:101FE00069D01C408A07BA97054798C30F00800440
:101FF0009C43E1BF011106CE22CC2A840D3B2AC6A8
:10200000700022858945AD37F240624405618280C7
:10201000011106CE22CC2A84193B2AC670002285E3
:102020008D45B937F240624405618280AA85F32765
:1020300040F11397270093870182BA978843F327CB
:10204000203405C593F7F73F138741819387870EA7
:10205000631AE500370700808A0713070707BA9756
:102060009C4382878A079C43029082808280000082
:102070000000000000000000000000000000000060
:10208000397106DE16DC1ADA1ED82AD62ED432D2E0
:1020900036D03ACE3ECC42CA46C872C676C47AC260
:1020A0007EC0F32740F11397270093870182BA97E8
:1020B000944373262034F3271034F32730347327E6
:1020C00050308DC6938741816385F604814713752F
:1020D000F63F635D0606930600086311D50403A767
:1020E000073983A58739130500080297F250E25299
:1020F0005253C2533255A255125682567247E24786
:102100005248C248324EA24E124F824F2161730094
:102110002030B70700809387070755BFAD4663D5CA
:10212000A6001377F70311EB61473307E502BA976F
:1021300003A7070983A587094DBF8946E318D7FA86
:1021400073277030184383A5C70D45B71307850E55
:102150000A07BA979C43AA853685829741BF00003B
:10216000000000000000000000000000000000006F
:102170000000000000000000000001458280F325FF
:1021800000B8732500B0F32700B8E39AF5FE82800B
:1021900011CD938741816306F50001459355F541C3
:1021A000828037450F0013050524CDBF01458145C9
:1021B00082800111814701483EC406CE42C6938702
:1021C0004181639CA700B707008003A5C71A11C50A
:1021D0001C4130008545FC478297F2402245B245BC
:1021E00005618280370500801305C57682801D4514
:1021F00082800D458280011106CE2EC693874181D3
:102200006391A702B707008083A7C7147D5599C7BC
:10221000984370008D4578473E850297F2400561EE
:1022200082807D55E5BF011106CE2EC69387418180
:102230006391A702B707008083A7C7147D5599C78C
:1022400098437000894578473E850297F2400561C2
:1022500082807D55E5BF011106CE2EC69387418150
:102260006391A702B707008083A7C714014599C7E8
:1022700098437000914578473E850297F24005618A
:1022800082800145E5BF938741816384A7000145B2
:1022900082803705008013050507828083D70500FB
:1022A0000D4711458D8B6383E700094582807325B7
:1022B00010348280739015340145828001458280FC
:1022C00041111305400606C6EF1060614111130568
:1022D000800C06C6EF10A06093874181B2862E86DF
:1022E000639BA700B707008003A5C71A09C51C4157
:1022F0008145BC4B82877D5582805C41A9EF930765
:1023000005091307053923A0070023A2070023A40A
:102310000700E107E399E7FE372740209307053AD6
:102320009306053D1307072C98C39107E39EF6FE1D
:1023300073275030B707402093874713631BF7007C
:10234000F3275030B727402093870708F19B7390FD
:10235000573085475CC18280370500801305C576FC
:10236000828081EDF3275030B727402093870708FC
:10237000F19B739057300145828085477D55E39DE1
:10238000F5FEF3275030B74740209387079093E737
:102390001700C5B76348A000938701820A053E95E0
:1023A0000841828001458280411106C622C47325FE
:1023B00040F1CD372A84F53BAE879305A50033B6AF
:1023C000A50022852244B2403E96410131B77325D3
:1023D00040F1828039712AD61305C01206DE16DC60
:1023E0001ADA1ED82ED432D236D03ACE3ECC42CAD9
:1023F00046C872C676C47AC27EC0EF10404E3971AC
:1024000006DE16DC1ADA1ED82AD62ED432D236D000
:102410003ACE3ECC42CA46C872C676C47AC27EC0A4
:10242000F32740F11397270093870182BA979843C7
:1024300019CF93874181631FF702B7070080938705
:10244000070703A7870D83A5070E0D450297F250D6
:10245000E2525253C2533255A25512568256724717
:10246000E2475248C248324EA24E124F824F21617B
:10247000730020308327000E0290397106DE16DCCF
:102480001ADA1ED82AD62ED432D236D03ACE3ECC44
:1024900042CA46C872C676C47AC27EC0F32740F1EB
:1024A0001397270093870182BA97984319CF938790
:1024B0004181631FF702B70700809387070703A7CF
:1024C000871383A507141D450297F250E252525319
:1024D000C2533255A255125682567247E2475248AD
:1024E000C248324EA24E124F824F216173002030FB
:1024F000832700140290397106DE16DC1ADA1ED822
:102500002AD62ED432D236D03ACE3ECC42CA46C893
:1025100072C676C47AC27EC0F32740F113972700B3
:1025200093870182BA97984319CF93874181631F9C
:10253000F702B70700809387070703A7072183A542
:10254000872141450297F250E2525253C25332550D
:10255000A255125682567247E2475248C248324E3E
:10256000A24E124F824F21617300203083278021B9
:102570000290397106DE16DC1ADA1ED82AD62ED45D
:1025800032D236D03ACE3ECC42CA46C872C676C4A3
:102590007AC27EC0F32740F1139727009387018208
:1025A000BA97984319CF93874181631FF702B70702
:1025B00000809387070703A7872283A50723454544
:1025C0000297F250E2525253C2533255A25512565C
:1025D00082567247E2475248C248324EA24E124FCC
:1025E000824F2161730020308327002302903971CC
:1025F00006DE16DC1ADA1ED82AD62ED432D236D00F
:102600003ACE3ECC42CA46C872C676C47AC27EC0B2
:10261000F32740F11397270093870182BA979843D5
:1026200019CF93874181631FF702B7070080938713
:10263000070703A7072483A5872449450297F2507B
:10264000E2525253C2533255A25512568256724725
:10265000E2475248C248324EA24E124F824F216189
:1026600073002030832780240290397106DE16DC47
:102670001ADA1ED82AD62ED432D236D03ACE3ECC52
:1026800042CA46C872C676C47AC27EC0F32740F1F9
:102690001397270093870182BA97984319CF93879E
:1026A0004181631FF702B70700809387070703A7DD
:1026B000872583A507264D450297F250E2525253D3
:1026C000C2533255A255125682567247E2475248BB
:1026D000C248324EA24E124F824F21617300203009
:1026E000832700260290397106DE16DC1ADA1ED81E
:1026F0002AD62ED432D236D03ACE3ECC42CA46C8A2
:1027000072C676C47AC27EC0F32740F113972700C1
:1027100093870182BA97984319CF93874181631FAA
:10272000F702B70700809387070703A7072783A54A
:10273000872751450297F250E2525253C253325505
:10274000A255125682567247E2475248C248324E4C
:10275000A24E124F824F21617300203083278027C1
:102760000290397106DE16DC1ADA1ED82AD62ED46B
:1027700032D236D03ACE3ECC42CA46C872C676C4B1
:102780007AC27EC0F32740F1139727009387018216
:10279000BA97984319CF93874181631FF702B70710
:1027A00000809387070703A7872883A50729554536
:1027B0000297F250E2525253C2533255A25512566A
:1027C00082567247E2475248C248324EA24E124FDA
:1027D000824F2161730020308327002902903971D4
:1027E00006DE16DC1ADA1ED82AD62ED432D236D01D
:1027F0003ACE3ECC42CA46C872C676C47AC27EC0C1
:10280000F32740F11397270093870182BA979843E3
:1028100019CF93874181631FF702B7070080938721
:10282000070703A7072A83A5872A59450297F2506D
:10283000E2525253C2533255A25512568256724733
:10284000E2475248C248324EA24E124F824F216197
:10285000730020308327802A0290397106DE16DC4F
:102860001ADA1ED82AD62ED432D236D03ACE3ECC60
:1028700042CA46C872C676C47AC27EC0F32740F107
:102880001397270093870182BA97984319CF9387AC
:102890004181631FF702B70700809387070703A7EB
:1028A000872B83A5072C5D450297F250E2525253C5
:1028B000C2533255A255125682567247E2475248C9
:1028C000C248324EA24E124F824F21617300203017
:1028D0008327002C0290397106DE16DC1ADA1ED826
:1028E0002AD62ED432D236D03ACE3ECC42CA46C8B0
:1028F00072C676C47AC27EC0F32740F113972700D0
:1029000093870182BA97984319CF93874181631FB8
:10291000F702B70700809387070703A7072D83A552
:10292000872D61450297F250E2525253C2533255FD
:10293000A255125682567247E2475248C248324E5A
:10294000A24E124F824F2161730020308327802DC9
:102950000290397106DE16DC1ADA1ED82AD62ED479
:1029600032D236D03ACE3ECC42CA46C872C676C4BF
:102970007AC27EC0F32740F1139727009387018224
:10298000BA97984319CF93874181631FF702B7071E
:1029900000809387070703A7872E83A5072F654528
:1029A0000297F250E2525253C2533255A255125678
:1029B00082567247E2475248C248324EA24E124FE8
:1029C000824F2161730020308327002F02903971DC
:1029D00006DE16DC1ADA1ED82AD62ED432D236D02B
:1029E0003ACE3ECC42CA46C872C676C47AC27EC0CF
:1029F000F32740F11397270093870182BA979843F2
:102A000019CF93874181631FF702B707008093872F
:102A1000070703A7073083A5873069450297F2505F
:102A2000E2525253C2533255A25512568256724741
:102A3000E2475248C248324EA24E124F824F2161A5
:102A400073002030832780300290397106DE16DC57
:102A50001ADA1ED82AD62ED432D236D03ACE3ECC6E
:102A600042CA46C872C676C47AC27EC0F32740F115
:102A70001397270093870182BA97984319CF9387BA
:102A80004181631FF702B70700809387070703A7F9
:102A9000873183A507326D450297F250E2525253B7
:102AA000C2533255A255125682567247E2475248D7
:102AB000C248324EA24E124F824F21617300203025
:102AC000832700320290397106DE16DC1ADA1ED82E
:102AD0002AD62ED432D236D03ACE3ECC42CA46C8BE
:102AE00072C676C47AC27EC0F32740F113972700DE
:102AF00093870182BA97984319CF93874181631FC7
:102B0000F702B70700809387070703A7073383A55A
:102B1000873371450297F250E2525253C2533255F5
:102B2000A255125682567247E2475248C248324E68
:102B3000A24E124F824F21617300203083278033D1
:102B40000290397106DE16DC1ADA1ED82AD62ED487
:102B500032D236D03ACE3ECC42CA46C872C676C4CD
:102B60007AC27EC0F32740F1139727009387018232
:102B7000BA97984319CF93874181631FF702B7072C
:102B800000809387070703A7873483A5073575451A
:102B90000297F250E2525253C2533255A255125686
:102BA00082567247E2475248C248324EA24E124FF6
:102BB000824F2161730020308327003502903971E4
:102BC00006DE16DC1ADA1ED82AD62ED432D236D039
:102BD0003ACE3ECC42CA46C872C676C47AC27EC0DD
:102BE000F32740F11397270093870182BA97984300
:102BF00019CF93874181631FF702B707008093873E
:102C0000070703A7073683A5873679450297F25051
:102C1000E2525253C2533255A2551256825672474F
:102C2000E2475248C248324EA24E124F824F2161B3
:102C300073002030832780360290397106DE16DC5F
:102C40001ADA1ED82AD62ED432D236D03ACE3ECC7C
:102C500042CA46C872C676C47AC27EC0F32740F123
:102C60001397270093870182BA97984319CF9387C8
:102C70004181631FF702B70700809387070703A707
:102C8000873783A507387D450297F250E2525253A9
:102C9000C2533255A255125682567247E2475248E5
:102CA000C248324EA24E124F824F21617300203033
:102CB000832700380290F327503093F7F703FD176E
:102CC000094701456369F700370740201307477A32
:102CD000BA9703C507008280F9BFFD472A8763C002
:102CE000A7028947014563D0E70285473395E7008E
:102CF000C577938787887D8D3335A0008280130543
:102D000005F8133515008280011126CAAA842E8584
:102D100022CC4AC84EC606CE2E84B2893689753F6B
:102D2000D55701C993070008631BF4086937CD57CD
:102D300035CDF2406244D2444249B2493E850561F4
:102D4000828023A8343923AC243909A8E14533040F
:102D5000B402269423283409232C24098147D1BFA7
:102D60007D47D157E34787FC3D47E35487FCE14566
:102D70003304B402B72740209387C72C2694232816
:102D8000F408232A2409D9BFB72740209387C70214
:102D900023ACF40C23AE240DD1B7B7274020938782
:102DA000873A23ACF41223AE24134DBFE39B09F8FA
:102DB000B72740209387C70623A8F43869B7E3975D
:102DC00009F8AD47E305F4FAE3CC87F88D47E30D46
:102DD000F4FA9D47E303F4FCD157A1BF11C99D4705
:102DE0006388F50463E8B7008DC58D47638DF502F0
:102DF0007D5605A8AD476380F504938705FF3D47E1
:102E0000E368F7FE8547B395B7000DEEF3B545309F
:102E100009A8A14709C6F3A70730014619A0F3B7CF
:102E2000073032858280A14719CAF3A74730F5B72A
:102E300093070008D5BF856793870780F5B7F3B779
:102E40004730C5B7F3A54530C9BF054641BF014668
:102E500071B72D47AA877D55634AB70001CA93858C
:102E6000850E8A05BE9590C1014582808280938738
:102E700041816397A7003705008013050507D1BF7F
:102E80007D558280B707008093870744639DA70024
:102E900099477D5563EAC700B707000C8A05BE95C0
:102EA00090C1014582807D558280B707008093875D
:102EB00007446387A70081478A05BE9588418280C1
:102EC000B707000CD5BF41111305C01206C6EF00AD
:102ED00010210111B707008022CC26CA4EC652C469
:102EE00006CE4AC8938707442A84AE84328AB689BC
:102EF00001476313F5006D477D5563D4E4021399D0
:102F0000240063080A02A68522850946A53FE145FB
:102F1000B384B4022299232449012694232434093A
:102F20000145F2406244D2444249B249224A056115
:102F30008280A68522850546B137E145B384B40277
:102F4000B73740202299938767EC2324F900269411
:102F500023223409F1B7B70700809387074401475C
:102F60006394A7003707000CB70720009107B2054C
:102F7000BE95BA9588418280B70700809387074441
:102F80003707000C6383A7000147B7072000B2058D
:102F90009107BE95BA9590C18280011106CE22CCD0
:102FA00026CA2E84EFF0AFC2B334A000B304904021
:102FB000A68522854D37B7070080938707442A8668
:102FC0006313F402E94763E0A70293172500A29771
:102FD000984711CBE147B307F5022AC6A29783A50C
:102FE00087080297324622856244F240A685D24481
:102FF000056159B7B7070080938707443707000C6E
:103000006383A7000147B7072000B205BE95BA95B4
:1030100090C101458280011122CC06CE2A842EC6A1
:10302000EFF0EFBAAA85228562443246F24005618C
:10303000D1B7011122CC26CA4AC84EC652C406CE08
:10304000AA89328A2E840149814411E8F2406244FF
:10305000D244B249224A4A8542490561828099C8D0
:103060005286A6854E85793793771500B3979700DA
:103070003369F90085040580C9BFB70700809387CD
:103080000744638AA700814737072000B205BA9535
:10309000BE9588418280B707000CFDB7411122C45C
:1030A00006C62A84EFF0AFB2AA8522852244B24038
:1030B0004101E1B7411106C6C937B240014541019E
:1030C000828037070080130707443708000C63032A
:1030D000A7000148935756409E058A07AE97096797
:1030E000BA97C2978C4305473316C70089C64D8EE1
:1030F00090C3014582801346F6FF6D8ED5BF79716E
:103100004AD00329450006D622D426D24ECE52CC30
:1031100056CA5AC85EC6630D0900B2502254925472
:103120000259F249624AD24A424BB24B456182800F
:10313000B7070080938707442A846D4B6303F5002B
:10314000014BB704008083A7040713850407930A83
:1031500084009C4393094408138A04078297930BC5
:10316000004081464A8681452285A13F635C690112
:103170000146CA852285393323A00A0023A009000D
:1031800023A209000509910AE109E31C79FD014622
:1031900081452285853583270A00A2860146DC4FBA
:1031A000AD4513850407829783270A0037364020F0
:1031B000A286DC4F1306A6F9AD4513850407829756
:1031C00083270A00AD4513850407DC5382978547A2
:1031D0005CC0A1B70111B707008022CC06CE93874F
:1031E00007442A842E8601476313F5006D4732C6D3
:1031F0007D55635AE600EFF08F9D3246AA858546DD
:103200002285C1350145F240624405618280011189
:10321000B707008022CC06CE938707442A842E86E7
:1032200001476313F5006D4732C67D55635AE600CA
:10323000EFF0EF993246AA8581462285593501453E
:10324000F2406244056182800111B707008022CC00
:103250004EC652C406CE26CA4AC893870744AA89D6
:103260002E84328A01476313F5006D477D556356FE
:10327000EA008144014911E82685F2406244D244C3
:103280004249B249224A05618280630C09008546A1
:103290005286CA854E85353593771500B397270139
:1032A000DD8C05090580C1BF0111B707008022CC64
:1032B0004EC652C406CE26CA4AC893870744AA8976
:1032C0002E84328A01476313F5006D477D5563569E
:1032D000EA008144014911E82685F2406244D24463
:1032E0004249B249224A05618280630C0900814645
:1032F0005286CA854E85F13393771500B39727011F
:10330000DD8C05090580C1BF1387C181B727011076
:103310006303A7008147D8430145D98DCCC3828080
:103320001387C181B72701106303A7008147D843E2
:1033300093C5F5FF0145F98DCCC382809387C18188
:103340006385A700814788438280B7270110E5BFC6
:103350009387C1816385A7008147C8478280B727CB
:103360000110E5BF1387C181B72701106303A700D0
:103370008147984793C5F5FF0145F98D8CC7828039
:103380001387C181B72701106303A70081479847BE
:103390000145D98D8CC782801387C181B727011061
:1033A0006303A7008147D8470145D98DCCC78280E8
:1033B0001387C181B72701106303A7008147D8474E
:1033C00093C5F5FF0145F98DCCC782801387C18174
:1033D000B72701106303A7008147D8470145B98D7E
:1033E000CCC782801387C181B72701106303A70070
:1033F0008147D85F0145D98DCCDF985F598E90DF2A
:1034000082801387C181B72701106303A70081471A
:10341000985F93C5F5FF0145F98D8CDF8280138796
:10342000C181B72701106303A70081471D47636C63
:10343000C702370740201307076D0A063A9618425D
:103440000287984F93C5F5FF6D8F98CF98536D8F76
:1034500098D398576D8F98D7985BF98D8CDB21A006
:10346000984FD98D8CCF01458280984F4D8F98CF42
:103470009853D98D8CD3C5BF9857D98D8CD7E5B7C4
:10348000984F4D8F98CF98534D8F98D398574D8F15
:1034900098D7985BD98DD9B71387C181B727011009
:1034A0006303A70081477D161947636DC70037077F
:1034B00040201307076F0A063A9618420287D84F32
:1034C000D98DCCCF01458280D84F4D8FD8CFD853DE
:1034D000D98DCCD3C5BFD857D98DCCD7E5B7D84F68
:1034E0004D8FD8CFD8534D8FD8D3D8574D8FD8D7ED
:1034F000D85BD98DCCDBF9B79387C1816384A700F2
:10350000014582803705008013050544828093873A
:10351000C1816392A7081D45C1C185472145638DBF
:10352000F506894725456389F5068D472945638555
:10353000F50691472D456381F50695473145638D25
:10354000F504994735456389F5049D4739456385F9
:10355000F504A1473D456381F504A5474145638DC9
:10356000F502A94745456389F502AD47494563859D
:10357000F502B1474D456381F502B5475145638D6D
:10358000F500B94755456389F500BD470145639589
:10359000F5005945828001458280B70700809387F6
:1035A00007746384A70001458280370500801305F6
:1035B00005448280B7070080938707746384A7005F
:1035C0000145828015458280370700801307077404
:1035D000B73701106303A7008147984B0145136774
:1035E000170098CB82803707008013070774B7371E
:1035F00001106303A7008147984B0145799B98CB45
:1036000082803707008013070774B7370110630300
:10361000A7008147984B01451367270098CB82800C
:103620003707008013070774B73701106303A7003B
:103630008147984B0145759B98CB8280B7070080E6
:10364000938707746386A700814788437D818280C2
:10365000B7370110DDBF3707008013070774B7378E
:1036600001106303A70081479847B7060700C2050A
:10367000F58DD98D8CC701458280B707008093876F
:1036800007746387A7008147884741811D8982802D
:10369000B7370110D5BF3707008013070774B73756
:1036A00001106303A7008147D847B7060700C2058A
:1036B000F58DD98DCCC701458280B70700809387EF
:1036C00007746387A7008147C84741811D898280AD
:1036D000B7370110D5BF4111B707008022C426C2F9
:1036E0004AC006C6938707742A84AE84373901100E
:1036F0006303F50001492285913775FDB2402244EC
:10370000232099009244024941018280B70700803A
:1037100093870774373701106383A7000147584325
:10372000FD57634407009377F70F9CC101458280E2
:1037300048418280411122C406C6B70700809387A2
:1037400007744CC12E846307F500B2402244014542
:103750004101828037050080832705061305050691
:103760009C43829733458502B73701107D1588CF7A
:1037700098471367170098C7D84713671700D8C72B
:10378000E9B70111B707008026CA06CE22CC93877D
:103790000774AA846309F504814701459847B70671
:1037A000F9FFFD16758F98C79847C1661386870085
:1037B000558F98C7D84B058B75DF1C4100429C4341
:1037C000098813341400829725043304A402C840E6
:1037D00002C63354A402B24763CE8700F24062446B
:1037E000D2440561828037070080B7370110130586
:1037F00007066DB70100B24785073EC6E9BF011154
:103800004AC83709008022CC26CA4EC606CE52C40A
:10381000130909742A84AE898144631D2503B737CF
:103820004020938727781CC5B7040080130A8500C1
:1038300048C4D28513850406AD28B7474020938736
:103840002789138504065CC800CC93054401AD2884
:103850009384C1811C40CE852285DC4B829795C024
:10386000370603006303240101469C406244F24092
:103870004249B249224ADC532685D244814505613A
:103880008287F2406244D2444249B249224A0561E9
:10389000828018414C41584B0287AA8723A4050017
:1038A0002E8599C73E87BA86184775FF88C63E851C
:1038B0008280411122C42A84484106C6F93FB240A1
:1038C00048C0224441018280411122C42A84084513
:1038D00006C6E137B24008C422444101828001009B
:1038E000FDBF00000000000000000000000000001C
:1038F00000000000000000000000000000000000C8
:103900006FE05FAD6FE01FAD6FE0DFAC6FE03FAF2A
:103910006FE05FAC6FE01FAC6FE0DFAB6FE0FFB557
:103920006FE05FAB6FE01FAB6FE0DFAA6FE09FAAB5
:103930006FE05FAA6FE01FAA6FE0DFA96FE09FA9A9
:103940006FE07FBB6FE0FFC26FE07FCA6FE0FFD127
:103950006FE07FD96FE0FFE06FE07FE86FE0FFEF9F
:103960006FE07FF76FE0FFFE6FF06F866FF0EF8D17
:103970006FF06F956FF0EF9C6FF06FA46FF0EFAB8F
:10398000B7070080938707066384A70001458280FC
:1039900037D5DF03130505248280B707008093879E
:1039A00007066384A7000145828037D5DF0313052E
:1039B00005248280411106C6F920B2409307800594
:1039C0001CC17D5541018280411106C66D28B2405F
:1039D000930780FA1CC17D55410182807D15133506
:1039E00015008280411106C67928B24093078005F0
:1039F0001CC17D5541018280411106C66920B2403B
:103A0000930780051CC17D5541018280938701CEBB
:103A10001387014E6385E70293874182AA85884315
:103A2000B306B50063FCE600011106CE2AC694C3B6
:103A3000EFC0AFE5F24032450561828098C37D5505
:103A40008280411106C622C426C285476319F5004B
:103A50002E84B384C500631E9400014531A0252047
:103A6000930780051CC17D55B24022449244410118
:103A700082800345040005047524F1BFAA858146B0
:103A800001460145E1A017D5BF5F0325A5CD828082
:103A9000411122C406C697070000938727132A8482
:103AA00099C38145152217D5FFFF0325A5CF1C55C6
:103AB00091C3829722855924411122C426C217D46A
:103AC000FFFF1304A48197D4FFFF93842481058C06
:103AD00006C6098411E4B240224492444101828026
:103AE0007D1493172400A6979C438297E5B7411154
:103AF00022C426C217C4FFFF1304C47D97C4FFFF6E
:103B00009384447D818C4AC006C68984014963152B
:103B1000990217C4FFFF1304E47B97C4FFFF93844B
:103B2000647B818C89840149631D9900B2402244E1
:103B300092440249410182801C4005091104829788
:103B4000F9B71C40050911048297F9BFAA8817D557
:103B5000BF5F1305A5C51C4191EF17D7BF5F1307C2
:103B6000A7C518C113050000BA8709C51C41232445
:103B7000F708BA87D8437D487D556346E804638DCE
:103B8000080203A88708630008041315270042955C
:103B900010C10323081005463316E6003363C30043
:103BA000232068102320D50889466397D8008326F0
:103BB0004810558E2322C810930617000A07D4C355
:103BC000BA978CC701458280797156CA5AC85EC6B9
:103BD00062C406D622D426D24AD04ECE52CC66C279
:103BE0002A8BAE8A97DBBF5F938B4BBC054C83A4BB
:103BF0000B0081CCC04083A984081309F4FF0A0498
:103C0000338A89002694635F0900B250225492548B
:103C10000259F249624AD24A424BB24B224C924C70
:103C200045618280638C0A00639609007D19711AD0
:103C30007114D1BF8327CA07E39A57FFD8405C406D
:103C40007D176318270323A22401EDD383AC44001E
:103C50006388090083A6091033172C01F98E89EEB9
:103C60008297D84083A70B00E31397F9E380F4FC15
:103C7000BDBF23220400D1BF83A649108325CAFFFC
:103C8000758F01E75A858297E9BF2E858297D1BF4C
:103C9000B70700809387077B984315EF411122C433
:103CA00026C23704402006C60547B704402098C303
:103CB0009384442D9307042D1304042D63EA970085
:103CC000B24022449244410182801C4011048297F8
:103CD000E31D94FEF5B78280B70700809387C77A0B
:103CE000984315EF411122C426C23704402006C66E
:103CF0000547B704402098C39384842D9307842DEF
:103D00001304842D63EA9700B24022449244410197
:103D100082801C4011048297E31D94FEF5B78280D7
:103D200085BF5DBFAA85370500801305057421A0F6
:103D30001C419C4382871C41DC438287411106C69B
:043D4000EFF0FFB9E8
:103D4800000000008C044020AC0440206C0440209B
:103D5800000000000000000000000000000000005B
:103D6800000000000000000000000000000000004B
:103D7800000000000000000000000000000000003B
:103D8800000000000000000000000000000000002B
:103D9800000000000000000000000000000000001B
:103DA800A8074020000000000000000000000000FC
:103DB800080640200000000000000000000000008D
:103DC80000000000000000000000000000000000EB
:103DD80000000000000000000000000000000000DB
:103DE80000000000000000000000000000000000CB
:103DF80000000000000000000000000000000000BB
:104188006C06402000000000000000000000000055
:104198000000000000000000000000000000000017
:1041A8000000000000000000000000000000000007
:1041B80000000000000000000000000000000000F7
:1041C80000000000000000000000000000000000E7
:104488004807402000000000000000000000000075
:104498000000000000000000000000000000000014
:1044A80000000080740700807C07008060054020C1
:1044B80000000000C4054020000000000C07402058
:0844C80074070080400C008025
:040000052040000097
:00000001FF
